:020000040800F2
:1000000000180020410300082D0300082F030008FA
:1000100000000000000000000000000000000000E0
:100020000000000000000000000000003103000894
:100030000000000000000000330300083503000842
:10004000C103000800000000C1030008C10300084C
:10005000C1030008C1030008C1030008C103000870
:1000600000000000C1030008C1030008C10300082C
:10007000C1030008C1030008C1030008000000001C
:10008000C10300080000000000000000C1030008D8
:1000900000000000C1030008C1030008C1030008FC
:1000A00000000000C103000800000000C1030008B8
:1000B000C10300080000000000000000C1030008A8
:1000C00010B5064C2378002B07D1054B002B02D02E
:1000D000044800E000BF0123237010BD0C00002085
:1000E00000000000580C0008044B10B5002B03D092
:1000F0000349044800E000BF10BDC04600000000F6
:1001000010000020580C0008002243088B4274D3D2
:1001100003098B425FD3030A8B4244D3030B8B4208
:1001200028D3030C8B420DD3FF22090212BA030C11
:100130008B4202D31212090265D0030B8B4219D3F2
:1001400000E0090AC30B8B4201D3CB03C01A524112
:10015000830B8B4201D38B03C01A5241430B8B425A
:1001600001D34B03C01A5241030B8B4201D30B0343
:10017000C01A5241C30A8B4201D3CB02C01A52416A
:10018000830A8B4201D38B02C01A5241430A8B422D
:1001900001D34B02C01A5241030A8B4201D30B0216
:1001A000C01A5241CDD2C3098B4201D3CB01C01A30
:1001B000524183098B4201D38B01C01A524143093A
:1001C0008B4201D34B01C01A524103098B4201D328
:1001D0000B01C01A5241C3088B4201D3CB00C01A95
:1001E000524183088B4201D38B00C01A524143080D
:1001F0008B4201D34B00C01A5241411A00D2014632
:10020000524110467047FFE701B5002000F006F8A4
:1002100002BDC0460029F7D076E770477047C04658
:1002200030B591B02822002106A800F00CFD102264
:100230000021684600F007FD80235B020D938023B8
:10024000012402255B0304A80E93049405940C95E5
:1002500000F00EFA07230093002321006846019561
:100260000293039300F03EFC11B030BD30B589B06D
:1002700000F0CCF8FFF7D4FF1422002103A800F00F
:10028000E2FC80201C4BC003596990250143596151
:1002900080215A698902024090200192019A5A698C
:1002A000C0050A435A615B6900220B40029310218A
:1002B000029B00F0D7F91023902003930F3B049387
:1002C000002303A9C005FA240593069300F016F94C
:1002D000ED05A40000221021280000F0C3F9200041
:1002E00000F0B6F828000122102100F0BBF9200030
:1002F00000F0AEF8EEE7C0460010024001200A4BC5
:1003000082B099690143996180219A694905024047
:100310000092009ADA690A43DA61DB690B400193C3
:10032000019B02B07047C046001002407047FEE7D4
:100330007047704710B500F079F810BD70470000A5
:100340001348854613480168090E134A914205D1A6
:1003500012481349016013481349016013481449B6
:10036000144A002302E0D458C4500433C4188C4209
:10037000F9D3114A114C002301E013600432A24268
:10038000FBD3FFF7DBFF00F031FCFFF76FFFFEE769
:1003900000180020040000001F0000001810024098
:1003A00001000000000001400000000000000020EB
:1003B0000C000020A80C00080C0000202C000020DD
:1003C000FEE7000070B50500FA200D4B800019789B
:1003D000FFF79AFE0B4B01001868FFF795FE00F03F
:1003E00073F804000120002C09D1032D07D802382E
:1003F0002200290000F03EF82000034B1D6070BD74
:100400000400002000000020080000201023064AFD
:1004100010B5116800200B431360FFF7D3FFFFF7FF
:100420006DFF002010BDC04600200240034A044B6F
:1004300011681B785B1813607047C04628000020C5
:1004400004000020014B18687047C04628000020B7
:1004500070B50400FFF7F6FF0500631C02D0044BE3
:100460001B78E418FFF7EEFF401BA042FAD370BDE3
:100470000400002030B5FF2503242A00C3B21C402D
:10048000E400A24089012940D243A14000280ADBB0
:10049000C0240B4B80088000C018A40003591A40E8
:1004A0001143015130BD0F200340083B05489B0814
:1004B0009B001B18D86902401143D961F2E7C0467E
:1004C00000E100E000ED00E0094A431E01209342F4
:1004D0000DD8C021074A08485360036A09061B0269
:1004E0001B0A0B43036200200723906013607047D0
:1004F000FFFFFF0010E000E000ED00E0F0B50B684A
:1005000087B003930023039ADA4001D107B0F0BD0E
:1005100001229A4094466446039A2240019200D1F7
:1005200092E003254A685E0017000092B540102251
:100530009743EA4302927A1E012A10D88468029AED
:1005400001251440CA68B240224382606246446872
:100550009443009A12092A409A4022434260C46898
:10056000029A14408A68B2402243C260022F0DD121
:1005700007240F251C40A400A540DA089200821829
:10058000176AAF430D69A5402F4317620324026821
:10059000029D1540009A2240B24080241543009AE3
:1005A0006405056022424FD001250F27274A946930
:1005B0002C43946192699C082A4002351D40AD008D
:1005C000AF400592059A224AA400A418A66800220A
:1005D000BE439027FF05B8420CD01E4F0132B842EF
:1005E00008D01D4F0132B84204D01C4F0332B8422C
:1005F00000D1023AAA403243A260194A019C16680F
:10060000019D009FE4433543FF0301D4350025409D
:1006100015605668019D009F3543BF0301D4350026
:10062000254055609668019D009F3543FF0201D427
:10063000350025409560D568019E009F2E43BF027E
:1006400001D425402E00D66001335CE70010024043
:10065000000001400004004800080048000C004869
:1006600000040140002A01D0816170478162FCE7EB
:10067000F0B5040085B0002802D1012005B0F0BD1E
:100680000368DB072FD423689B0700D583E023682A
:100690001B0700D5C4E023685B0700D5E7E02368AB
:1006A000DB061AD56269BA4D0423012A00D053E152
:1006B000696B02260B436B636B6B1A436A63FFF72C
:1006C000C1FE07006B6B334200D13EE1F8216A6B3B
:1006D000A3698A43DB0013436B63236A002B00D0BA
:1006E00062E10020CAE70C21A94D6A680A40042A89
:1006F0000BD06B680B40082B0ED1C0226B685202E6
:10070000134080225202934206D12B689B03BAD534
:100710006368002BB7D1B0E76368012B13D1802346
:100720002A685B0213432B60FFF78CFE80260700CC
:10073000B6022B683342A6D1FFF784FEC01B6428A3
:10074000F7D903209AE7002B15D12B68914A802610
:1007500013402B602B68904AB60213402B60FFF7C2
:1007600071FE07002B6833428DD0FFF76BFEC01B74
:100770006428F7D9E5E7052B05D180232A68DB0239
:1007800013432B60CBE72B68824A13402B602B6806
:10079000814A1340C7E70C227D4D6B6813420BD092
:1007A0006B681340082B16D1C0226B6852021340AD
:1007B0008022120293420ED12B689B0703D5E36877
:1007C000012B00D059E7F8212A6823698A43DB000E
:1007D00013432B605BE7E2680123002A0FD02A68ED
:1007E000022613432B60FFF72DFE07002B683342D0
:1007F000E9D1FFF727FEC01B0228F7D9A1E72A6835
:1008000002269A432A60FFF71DFE07002B68334239
:1008100000D13CE7FFF716FEC01B0228F6D990E78F
:10082000E26901235A4D002A10D06A6A0226134356
:100830006B62FFF707FE07006B6A334200D02AE7BE
:10084000FFF700FEC01B0228F6D97AE76A6A022683
:100850009A436A62FFF7F6FD07006B6A334200D1E4
:1008600019E7FFF7EFFDC01B0228F6D969E78022E0
:100870000021474D5205EB690091134208D1EB6905
:100880001343EB61EB6913400393039B0123009334
:100890008027424E7F0033683B4206D0A368012B7D
:1008A00013D12A6A13432B6230E033683B43336031
:1008B000FFF7C8FD019033683B42EFD1FFF7C2FD5F
:1008C000019BC01A6428F6D93BE70122002B14D102
:1008D0002B6A022793432B622B6A033293432B62CA
:1008E000FFF7B0FD06002B6A3B4225D0FFF7AAFDBB
:1008F0002B4B801B9842F6D923E7052B0BD1296A95
:10090000013B0B432B622B6A1A432A62FFF79AFDC5
:10091000022706000DE02B6A934304222B622B6A08
:100920009343C0E7FFF78EFD1D4B801B984200D913
:1009300007E72B6A3B42F5D0009B012B00D0AEE6C7
:10094000EB69184A1340EB61A9E6FFF77BFDC01B7A
:10095000022800D8B6E6F4E6053203D16A6B9A4362
:100960006A63B3E66A6B0226134301226B636B6B07
:1009700093436B63FFF766FD07006B6B334200D157
:10098000ABE6FFF75FFDC01B0228F6D9D9E6C046EB
:1009900000100240FFFFFEFFFFFFFBFF0070004062
:1009A00088130000FFFFFFEF0C20354A5168150047
:1009B0000140082947D0334A022B32D12B688026C8
:1009C00013402B60FFF73EFD0700B6042B6833424F
:1009D00021D10F22EB6A9343E26A1343EB62616A0F
:1009E000A36A6A680B43284980240A4013436B605A
:1009F00080232A685B0413432B60FFF723FD060066
:100A0000A4042B68234200D06BE6FFF71BFD801B7C
:100A10000228F6D995E6FFF715FDC01B0228D5D9A7
:100A20008FE62B68802413402B60FFF70BFD060038
:100A3000A4042B68234200D153E6FFF703FD801B7B
:100A40000228F6D97DE61800012B00D116E6C02158
:100A50005368656A4902D26A19400120A94200D050
:100A60000CE60F210A40E16A8A4200D006E6F02037
:100A700080030340A06A1B1A581E8341D8B2FDE5CB
:100A800000100240FFFFFFFEFF7FC2FF30B5124D96
:100A900089B010222900684600F0CCF8290004AC87
:100AA00010311022200000F0C5F80C220B494B68D1
:100AB0001A40082A0DD1CA6A0F2168469B0C0B40C8
:100AC0000A40C55CA15C0648FFF71EFB684309B0FD
:100AD00030BD0348FBE7C046700C00080010024020
:100AE00000127A00F7B505000F00002801D101209F
:100AF000FEBD0122374C236813408B421CD329686A
:100B00008B0722D4CB072FD4012322681A40BA4284
:100B100051D82B68304C5B0754D4FFF7B7FF63689C
:100B20002E4A1B061B0FD35CD8402D4B18600020AB
:100B3000FFF748FC0020DBE7236893430B43236067
:100B4000236813408B42D2D1D9E7234A4B0704D5FF
:100B5000E0235068DB0003435360F0205368834375
:100B6000A86803435360CDE71B4E6A683368012AC7
:100B700019D19B03BBD5032173688B431343736067
:100B8000FFF760FC01900C2372681A406B689B00B1
:100B90009A42B9D0FFF756FC019BC01A114B9842FC
:100BA000F1D90320A4E7022A02D19B01E3D49EE7F6
:100BB0009B07E0D49BE722689A43226022681A428E
:100BC000A7D094E76368084A1340EA681343636058
:100BD000A3E7C0460020024000100240900C00082D
:100BE0000000002088130000FFF8FFFF70B500260A
:100BF0000C4D0D4C641BA410A64209D1002600F038
:100C00002BF80A4D0A4C641BA410A64205D170BDF6
:100C1000B300EB5898470136EEE7B300EB5898471E
:100C20000136F2E7A00C0008A00C0008A00C000898
:100C3000A40C0008002310B59A4200D110BDCC5C72
:100C4000C4540133F8E703001218934200D17047EF
:100C500019700133F9E70000F8B5C046F8BC08BCCC
:100C60009E467047F8B5C046F8BC08BC9E46704723
:100C700002030405060708090A0B0C0D0E0F1010DD
:100C80000102030405060708090A0B0C0D0E0F10DC
:100C9000000000000000000001020304060708092C
:040CA000E90000085F
:040CA400C100000883
:0C0CA80000127A000100000004000000AF
:0400000508000341AB
:00000001FF
